:020000040800F2
:1000000030040020450100084103000803030008F4
:100010003D0300088D0100081906000800000000DB
:10002000000000000000000000000000C9040008FB
:100030009D0100080000000043030008B50500080A
:100040005F0100085F0100085F0100085F01000810
:100050005F0100085F0100085F0100085F01000800
:100060005F0100085F0100085F0100085F010008F0
:100070005F0100085F0100085F0100085F010008E0
:100080005F0100085F0100085F0100085F010008D0
:100090005F0100085F0100085F0100085F010008C0
:1000A0005F0100085F0100085F0100085F010008B0
:1000B0005F0100085F0100085F0100085F010008A0
:1000C0005F0100085F0100085F0100085F01000890
:1000D0005F0100085F0100085F0100085F01000880
:1000E0005F0100085F0100085F0100085F01000870
:1000F0005F0100085F0100085F0100085F01000860
:100100005F0100085F0100085F0100085F0100084F
:100110005F0100085F0100085F0100085F0100083F
:100120005F0100085F0100085F0100085F0100082F
:10013000DFF80CD000F018F800480047550600081A
:10014000300400200648804706480047FEE7FEE7E7
:10015000FEE7FEE7FEE7FEE7FEE7FEE7FEE7FEE777
:10016000B905000831010008064C074D06E0E068BB
:1001700040F0010394E8070098471034AC42F6D3EE
:10018000FFF7DAFF0C0800082C08000800BFFEE7A4
:1001900010B500F025F900F003F810BD704700001D
:1001A00008B50121042000F00BF90121082000F01E
:1001B00007F90121102000F003F90121202000F0AF
:1001C000FFF84FF42870ADF8000010208DF8030000
:1001D00003208DF802006946014800F003F808BDCD
:1001E000000C01402DE9F0410246002500260020C8
:1001F00000230024002791F803C00CF00F0591F8AC
:1002000003C00CF0100CBCF1000F03D091F802C039
:100210004CEA050591F800C0BCF1000F31D014681C
:1002200000202BE04FF0010C0CFA00F3B1F800C0F5
:100230000CEA03069E4220D183004FF00F0C0CFA0B
:1002400003F7BC4305FA03FC4CEA040491F803C02D
:10025000BCF1280F06D14FF0010C0CFA00FCC2F8DB
:1002600014C00AE091F803C0BCF1480F05D14FF06B
:10027000010C0CFA00FCC2F810C0401C0828D1D3B5
:100280001460B1F800C0BCF1FF0F34DD54680020E9
:100290002EE000F1080C4FF0010808FA0CF3B1F859
:1002A00000C00CEA03069E4221D183004FF00F0CE0
:1002B0000CFA03F7BC4305FA03FC4CEA040491F87A
:1002C00003C0BCF1280F05D100F1080C08FA0CF8A6
:1002D000C2F8148091F803C0BCF1480F07D100F1B7
:1002E000080C4FF0010808FA0CF8C2F81080401C06
:1002F0000828CED35460BDE8F081416170470161A8
:10030000704700BFFEE7000010B501200A490870E1
:100310003021002000F0CCF90121002000F0C8F9C4
:10032000642000F08AF90621002000F0C1F90C21B8
:10033000002000F0BDF910BD1900002000BFFEE74D
:100340007047704770B505460E4600241A4800787D
:1003500000B970BD3021002000F0AAF9701E174AC4
:10036000115C002000F0A4F920E0285D0A2807D1E4
:100370001248815D002000F09BF9601CC4B215E0BA
:10038000285D09280AD1701E0C4A105C0830C1B2E1
:10039000002000F08DF9601CC4B207E02046621C0A
:1003A000D4B2295C012000F083F900BF285D002849
:1003B000DBD100BFCDE700001900002015000020B0
:1003C00029B1064A92690243044B9A6104E0034A48
:1003D00092698243014B9A6170470000001002400D
:1003E00010B500F0E9F8024800F004F810BD000074
:1003F0001C00002030B500210022002400232D4DD8
:100400006D6805F00C0121B1042905D0082923D11C
:1004100005E0294D056022E0274D05601FE0254DD0
:100420006D6805F47012234D6D6805F48034022563
:1004300005EB92421CB9214D554305600BE01D4D63
:100440006D6805F400351DB11C4D5543056002E093
:10045000194D5543056002E0174D056000BF00BF10
:10046000144D6D6805F0F0010909154D6B5C0568C8
:10047000DD4045600F4D6D6805F4E061090A104DDF
:100480006B5C4568DD4085600A4D6D6805F4605120
:10049000C90A0B4D6B5C4568DD40C560054D6D6854
:1004A00005F44041890B074D6B5CC568B5FBF3F55E
:1004B000056130BD0010024000127A0000093D00C5
:1004C0000000002010000020704710B500F002F876
:1004D00010BD00000CB5002001900090334800686A
:1004E00040F480303149086000BF3048006800F4B3
:1004F000003000900198401C0190009818B90198B4
:10050000B0F5A06FF1D12948006800F4003010B1B7
:100510000120009001E0002000900098012843D1C4
:100520002348006840F01000214908600846006830
:1005300020F0030008600846006840F002000860F0
:100540001A484068194948600846406848600846AB
:10055000406840F4806048600846406820F47C10A1
:1005600048600846406840F4E81048600846006863
:1005700040F08070086000BF0C48006800F0007018
:100580000028F9D00948406820F003000749486076
:100590000846406840F00200486000BF03484068D9
:1005A00000F00C000828F9D10CBD0000001002403A
:1005B000002002407047000010B51348006840F06A
:1005C00001001149086008464068104908400E497A
:1005D0004860084600680E4908400B490860084614
:1005E000006820F4802008600846406820F4FE007F
:1005F00048604FF41F008860FFF767FF4FF000600E
:100600000449086010BD0000001002400000FFF81F
:10061000FFFFF6FE08ED00E000BFFEE702E008C8BD
:10062000121F08C1002AFAD170477047002001E06C
:1006300001C1121F002AFBD17047002107E0C2B29E
:1006400001E0531EDAB2002AFBDC4B1CD9B20A29A6
:10065000F5DB7047FFF79CFDFFF756FE00BF012159
:1006600007A0FFF76FFE022108A0FFF76BFE032132
:1006700009A0FFF767FE04210AA0FFF763FEEEE77B
:10068000BBA8BCE4D2BBBAF8BEC60000B6C0D7C394
:10069000CEDECFE0C7D70000BED9B1ADD1FBC3F7E6
:1006A000D4C20000B6D4D3B0B3C9C8FDC8CB0000D3
:1006B0002DE9F04106460F461E20FFF7BEFF8020C1
:1006C00050490870B84620214F48FFF718FE4FF4F4
:1006D00000714D48FFF711FE80214B48FFF70FFED8
:1006E00000240EE04FF400714748FFF708FE192080
:1006F000FFF7A3FF4FF400714348FFF7FEFD601CB6
:10070000C4B2052CEEDB80213F48FFF7F6FD4FF425
:1007100000713D48FFF7F3FD1920FFF78EFF4FF4FE
:1007200000713948FFF7E9FD26B180213648FFF70F
:10073000E6FD03E080213448FFF7DFFD4FF4007150
:100740003148FFF7DCFD1920FFF777FF4FF4007108
:100750002D48FFF7D2FD80212B48FFF7CEFD4FF447
:1007600000712948FFF7CBFD1920FFF766FF4FF412
:1007700000712548FFF7C1FD00253EE0002421E07F
:100780002048007800EA080020B180211E48FFF7C9
:10079000B6FD03E080211C48FFF7AFFD1948007843
:1007A0004010184908704FF400711748FFF7A7FD73
:1007B0001920FFF742FF4FF400711348FFF79DFD2A
:1007C000601CC4B2042CDBDB80210F48FFF795FDD1
:1007D00000240EE04FF400710B48FFF790FD192044
:1007E000FFF72BFF4FF400710748FFF786FD601CF1
:1007F000C4B2042CEEDB681CC5B2022DBEDBBDE822
:10080000F081000014000020000C01402C080008BA
:10081000000000201C0000001C060008480800081A
:100820001C000020140400002C060008000000003A
:100830000102030401020304060708090204060872
:08084000008090889800000080
:0400000508000131BD
:00000001FF
