:020000040800F2
:10000000D021002045010008B1350008FB30000870
:10001000AD350008570800085D4A000800000000E0
:10002000000000000000000000000000613E000829
:100030009509000800000000B33500086F3E000875
:100040005F0100085F0100085F0100080D3900082A
:100050005F0100085F0100085F0100085F01000800
:100060005F0100085F0100085F0100085F010008F0
:100070005F0100085F010008F9080008090900088D
:1000800019090008290900085F0100085F0100083C
:100090005F0100085F0100085F0100085F010008C0
:1000A0005F0100085F0100085F0100085F010008B0
:1000B0005F010008013F00085F0100085F010008C0
:1000C0005F0100085F0100085F0100085F01000890
:1000D0005F01000815490008294900085F01000870
:1000E0005F0100085F0100085F0100085F01000870
:1000F0005F0100085F0100085F0100085F01000860
:100100005F0100085F0100085F0100085F0100084F
:1001100025410008714100085F0100085F010008E7
:100120005F0100085F0100085F0100085F0100082F
:10013000DFF80CD000F052FB004800476956000879
:10014000D02100200648804706480047FEE7FEE72A
:10015000FEE7FEE7FEE7FEE7FEE7FEE7FEE7FEE777
:10016000FF3E000831010008202A04DB203A21FA72
:1001700002F00021704721FA02F3D040C2F12002C0
:10018000914008431946704740EA01039B0703D09A
:1001900009E008C9121F08C0042AFAD203E011F8C6
:1001A000013B00F8013B521EF9D27047D2B201E088
:1001B00000F8012B491EFBD270470022F6E710B56C
:1001C00013460A4604461946FFF7F0FF204610BDC5
:1001D00030B505462A460B4612F8010B13F8014BC1
:1001E00008B1A042F8D01CB1002802D06D1CF1E784
:1001F000284630BD2DE9FE4F804681EA0300C00F3E
:100200000C46009021F0004123F00045B8EB0200BD
:10021000A94105D24046214690461C460B4602465F
:1002200023F00040104347D0270DC7F30A00C3F363
:100230000A510290401A019040286BDAC3F3130070
:1002400040F4801B0098924620B10023D2EB030AB1
:1002500063EB0B0B01985946C0F14002504600F089
:10026000D8F906460D4650465946019A00F0E0F985
:1002700010EB08006141002487EA115284EAE77319
:100280001A4340D0009A62B3019A012A4FEA0752FA
:1002900015DC001B61EB02014FF0004202EA07523D
:1002A000CDE90042001C41F5801132462B4600F09A
:1002B00017FA03B0BDE8F08F40462146F9E7001B6E
:1002C00061EB0201001C41F5801300185B4120180E
:1002D000A2F5001747EB030140EAD570B6196D414E
:1002E00011E06D084FEA360645EAC0754FEA07523D
:1002F000001B61EB0201001C41F5801149084FEA27
:1003000030000019514132462B4603B0BDE8F04F92
:1003100000F0D7B90098012240000023D0EB020280
:1003200063EBE073009821464FEAE074B8EB0000FD
:1003300061EB0401E9E783F000435BE781F00041F2
:1003400058E72DE9FE4F81EA030404F0004421F050
:10035000004100944FF0000B23F0004350EA0104E9
:100360005ED052EA03045BD0C3F30A54C1F30A55CA
:100370002C44A4F2F3340194A0FB0254C1F3130102
:1003800041F48011C3F3130343F4801301FB0244CF
:1003900000FB034E840A970A44EA815447EA8357D4
:1003A000A4FB076802958D0A05FB07854FEA932C8D
:1003B00004FB0C542705029D4FEA065847EA1637FE
:1003C000B5EB08056EEB070C870E920E47EA811716
:1003D00042EA8312A7FB0201B6EB0B0164EB0004B7
:1003E0002B0D43EA0C335E1844EB1C50DA465146A1
:1003F000E7FB0201C5F313044FEA0B3343EA14533E
:100400004FEA0432019C43EA0603A4F10C0402946F
:10041000009CCDE900B400F063F903B0BDE8F08FB3
:1004200000200146F9E72DE9F04D81EA030404F0CC
:10043000004B21F0004514464FF0000A23F0004124
:1004400050EA050220D054EA01021DD0C5F30A5734
:100450000246C5F31303C1F31300C1F30A5640F477
:10046000801543F48013A7EB0608101BD64608F24C
:10047000FD3873EB050002D308F1010801E0921882
:100480005B41B8F1000F03DA00200146BDE8F08DB2
:1004900000204FF48011064684460EE0171B73EBD4
:1004A000050705D3121B63EB050306434CEA010C59
:1004B00049084FEA300092185B4150EA0107EDD13C
:1004C00052EA030012D082EA040083EA05010843DD
:1004D00005D0101BAB4106D20122002306E000220A
:1004E0004FF0004302E06FF0010253101AEB0600D8
:1004F0004CEB085110EB0A0041EB0B01BDE8F04D4D
:1005000000F0DFB80EB5C10F80EAE0700844CA07FA
:10051000002140F233438DE80E000A460B4600F0FE
:10052000DFF803B000BD00F0004230F000400AD018
:10053000C10D01F56071C0F3160042EA0151C20815
:1005400040071143704700200146704701F0004307
:1005500030B421F0004150EA010206D00A0DA2F5A4
:100560006072C1F31301002A02DC30BC0020704726
:10057000440F44EAC104C100E01830BC00EBC25093
:1005800000F068B830B50B46014600202022012457
:1005900009E021FA02F59D4205D303FA02F5491B51
:1005A00004FA02F52844151EA2F10102F1DC30BD67
:1005B0002DE9F05F0546002092469B468846064698
:1005C000814640241BE02846414647462246FFF725
:1005D000CBFD53465A46C01A914110D311461846D6
:1005E000224600F016F82D1A67EB01084F46224606
:1005F0000120002100F00DF817EB00094E41201EEC
:10060000A4F10104DFDC484631462A464346BDE8F2
:10061000F09F202A04DB203A00FA02F10020704704
:100620009140C2F1200320FA03F319439040704730
:10063000202A06DBCB17203A41FA02F043EAE073A6
:1006400006E041FA02F3D040C2F120029140084393
:10065000194670470029A8BF7047401C490008BFD1
:1006600020F00100704710B4B0FA80FC00FA0CF0E2
:1006700050EA010404BF10BC704749B1CCF120041A
:1006800021FA04F411FA0CF118BF012121430843A7
:10069000A3EB0C01CB1D4FEA00614FEA102042BFD3
:1006A000002010BC704700EBC35010440029A4BFC9
:1006B00010BC7047401C490008BF20F0010010BC6E
:1006C000704710B5141E73F1000408DA401C41F1A4
:1006D000000192185B411A4301D120F0010010BDC6
:1006E0002DE9F04D92469B4611B1B1FA81F202E03C
:1006F000B0FA80F220329046FFF78BFF04460F4697
:1007000040EA0A0041EA0B0153465A46084313D017
:10071000114653EA010019D0C8F140025046FFF7D4
:1007200023FD05460E46504659464246FFF771FFE7
:10073000084305D0012004E020463946BDE8F08D8D
:100740000020054346EAE0762C4337430A986305C8
:10075000E40AA0EB08000022FD0A44EA47540A30EC
:1007600002D500200146E9E7010510196941DDE9DC
:10077000084500196941BDE8F04DA2E7C1F30A52EE
:10078000C1F3130140F2FF3341F480119A4202DABF
:1007900000200146704740F233439A42A2F23342AE
:1007A00002DC5242FFF7E0BCFFF733BF30B5041E56
:1007B00071F1000404DB4FF00044404264EB01019E
:1007C000141E73F1000405DB1C464FF00043524237
:1007D00063EB0403994208BF904230BD064C074DBD
:1007E00006E0E06840F0010394E807009847103401
:1007F000AC42F6D3FFF7A0FCB0590008D05900086E
:1008000070B58C1810F8015B15F0070301D110F8D2
:10081000013B2A1106D110F8012B03E010F8016BFF
:1008200001F8016B5B1EF9D12B0705D40023521E82
:100830000DD401F8013BFAE710F8013BCB1A921CEA
:1008400003E013F8015B01F8015B521EF9D5A142E8
:10085000D8D3002070BD00BFFEE7F0B504461546B2
:1008600000201EE0265C3211265C06F00F033032B9
:10087000392A03DDD61D01F8106001E001F81020CF
:1008800003F13006F3B2392B05DDDE1D012707EB3E
:100890004007CE5503E0012606EB40068B55461C6B
:1008A00030B2A842DEDBF0BD024601F08003012A2F
:1008B00001D183F080034806010E002B01DD81F099
:1008C0001D01084670472DE9F0410746FF251F240A
:1008D0000AE027FA04F000F0010629463046FFF747
:1008E000E3FF0546601EC4B2072CF2DCE843C5B244
:1008F0002846BDE8F081000010B5024800F050F92C
:1009000010BD0000E01A002010B5024800F048F9C0
:1009100010BD00009C1A002010B5024800F040F9FC
:1009200010BD0000241B002010B5024800F038F96B
:1009300010BD0000681B002030B590F84050012425
:10094000AC40C56B6C60046863604468102C04D1D3
:100950000468A2600468E16003E00468A1600468C0
:10096000E26030BD70B504460D4600BF0748807D8B
:100970000028FBD12A462146054802F0C1F918B9E2
:1009800001200249887570BD0120FCE75C18002039
:10099000141A0020704770470146002291F8210088
:1009A000022808D00420886300BF002081F82000BE
:1009B00000BF012070470868006820F00E000B6837
:1009C00018600868006820F001000B68186091F852
:1009D000403001209840CB6B5860012081F8210005
:1009E00000BF002081F8200000BF1046E2E70000B1
:1009F00070B50446002594F82100022803D0042095
:100A0000A0630125C1E02068006820F00E00216885
:100A100008602068006820F00100216808605C49D7
:100A20002068884252D95A4978392068884201D1D1
:100A3000012047E0564964392068884201D11020DE
:100A400040E0534950392068884201D1801539E08F
:100A50004F493C392068884201D1801432E04C492A
:100A600028392068884202D14FF480302AE0484972
:100A700014392068884202D14FF4801022E04449A2
:100A80002068884201D140041CE042492068884225
:100A900001D1012016E03F4914312068884201D17C
:100AA00010200FE03B4928312068884201D1801591
:100AB00008E038493C312068884201D1801401E0C7
:100AC0004FF480303349091F086051E030497839CC
:100AD0002068884201D1012047E02D49643920680F
:100AE000884201D1102040E02949503920688842CD
:100AF00001D1801539E026493C392068884201D16E
:100B0000801432E0224928392068884202D14FF40B
:100B100080302AE01E4914392068884202D14FF4FF
:100B2000801022E01A492068884201D140041CE06C
:100B300018492068884201D1012016E01549143176
:100B40002068884201D110200FE012492831206826
:100B5000884201D1801508E00E493C312068884266
:100B600001D1801401E04FF4803009498039486098
:100B7000012084F8210000BF002084F8200000BF7D
:100B8000606B10B12046616B8847284670BD00003D
:100B900080000240080402400146886B7047000054
:100BA00070B50446E06B05682068066894F840104C
:100BB000042088402840002875D006F00400002852
:100BC000FAD02068006800F0200028B9206800688A
:100BD00020F0040021680860D5492068884254D973
:100BE000D34978392068884201D1042049E0D049AE
:100BF00064392068884201D1402042E0CC49503914
:100C00002068884201D100153BE0C9493C39206881
:100C1000884202D14FF4804033E0C549283920682A
:100C2000884202D14FF480202BE0C149143920685A
:100C3000884202D14FF4800023E0BD4920688842F9
:100C400001D1C0041DE0BB492068884201D10420C5
:100C500017E0B84914312068884201D1402010E0E3
:100C6000B44928312068884201D1001509E0B14912
:100C70003C312068884202D14FF4804001E04FF4BB
:100C80008020AC49091F086054E0A94978392068E0
:100C9000884201D104204AE0A5496439206888428D
:100CA00002D1402043E04CE0A149503920688842FD
:100CB00001D100153BE09E493C392068884202D1B1
:100CC0004FF4804033E09A4928392068884202D1A5
:100CD0004FF480202BE0964914392068884202D1D5
:100CE0004FF4800023E092492068884201D1C0047B
:100CF0001DE090492068884201D1042017E08D4909
:100D000014312068884201D1402010E089492831FF
:100D10002068884201D1001509E086493C312068ED
:100D2000884202D14FF4804001E04FF48020804996
:100D300080394860E06A002802D02046E16A88478E
:100D4000F4E094F84010022088402840002871D038
:100D500006F002000028FAD02068006800F02000A9
:100D600040B92068006820F00A002168086001206E
:100D700084F821006E492068884254D96C4978393A
:100D80002068884201D1022049E06949643920681D
:100D9000884201D1202042E06549503920688842CC
:100DA00001D140153BE062493C392068884202D1BC
:100DB0004FF4005033E05E4928392068884202D160
:100DC0004FF400302BE05A4914392068884202D190
:100DD0004FF4001023E056492068884201D1800476
:100DE0001DE054492068884201D1022017E0514992
:100DF00014312068884201D1202010E04D4928316B
:100E00002068884201D1401509E04A493C312068F8
:100E1000884202D14FF4005001E04FF400304549C0
:100E2000091F086054E0424978392068884202D19D
:100E300002204AE057E03E4964392068884201D1E7
:100E4000202042E03A4950392068884201D14015BB
:100E50003BE037493C392068884202D14FF40050CA
:100E600033E0334928392068884202D14FF40030FA
:100E70002BE02F4914392068884202D14FF400102A
:100E800023E02B492068884201D180041DE02949D4
:100E90002068884201D1022017E0264914312068D9
:100EA000884201D1202010E0224928312068884260
:100EB00001D1401509E01F493C312068884202D128
:100EC0004FF4005001E04FF4003019498039486078
:100ED00000BF002084F8200000BFA06A30B3204685
:100EE000A16A884722E094F84010082088402840F2
:100EF000E0B106F00800C8B12068006820F00E00DC
:100F00002168086094F8401001208840E16B486037
:100F10000120A06384F8210000BF002084F8200095
:100F200000BF206B10B12046216B884770BD0000C8
:100F300080000240080402400146002209B9012055
:100F400070471E4B086898420BD21D4B0868C01AA8
:100F50001423B0FBF3F08000086419480838C86314
:100F60000AE0164B0868C01A1423B0FBF3F08000A7
:100F7000086412480838C863022081F82100086814
:100F8000026843F6F0708243D1E901031843CB684D
:100F900018430B6918434B6918438B691843CB6995
:100FA000184302430868026000208863012081F82A
:100FB0002100002081F8200000BFC1E708040240A2
:100FC000080002402DE9F04104460D4616461F4632
:100FD0004FF0000800BF94F82000012802D1022041
:100FE000BDE8F081012084F8200000BF94F82100C2
:100FF00001282CD1022084F821000020A063206861
:10100000006820F00100216808603B46324629460E
:101010002046FFF791FCE06A30B12068006840F09C
:101020000E00216808600BE02068006820F00400D2
:10103000216808602068006840F00A0021680860A4
:101040002068006840F001002168086006E000BFE9
:10105000002084F8200000BF4FF002084046BFE7A0
:101060002DE9F847024600239C467BE14FF001083A
:1010700008FA03F4D1F8008008EA0400A0427DD108
:10108000DFF8F4A2D1F80480A8EB0A09D0453AD0E1
:1010900014DCB8F1030F50D009DCB8F1000F31D0E7
:1010A000B8F1010F1CD0B8F1020F49D120E0B8F11E
:1010B000110F18D0B8F1120F42D11EE0B9F5881FF8
:1010C00025D006DCB9F5803F20D0B9F5801F37D197
:1010D0001AE0B9F5001F18D0B9F5041F30D117E098
:1010E000D1F80CC02DE0D1F80C8008F1040C28E0F8
:1010F000D1F80C8008F1080C23E0D1F80C8008F13D
:101100000C0C1EE000BF00BF00BF00BF00BF00BF4F
:10111000D1F80880B8F1000F02D14FF0040C0BE0B9
:10112000D1F80880B8F1010F03D14FF0080C146119
:1011300002E04FF0080C546103E04FF0000C00E0B7
:1011400000BF00BFFF2801D8904601E002F104086B
:101150004646FF2802D84FEA830803E0A3F10808B7
:101160004FEA88084746D6F800804FF00F0909FA81
:1011700007F928EA09080CFA07F900E07AE048EADA
:101180000908C6F80080D1F8048008F08058B8F14A
:10119000805F6FD100BFDFF8E481D8F8188048F095
:1011A0000108DFF8D891C9F81880C846D8F8188027
:1011B00008F00108CDF8008000BF00BF4FEAB93841
:1011C0004FEA930958F829504FEA83784FEA187983
:1011D0004FF00F0808FA09F825EA0805DFF8A081A2
:1011E000424502D14FF0000824E0DFF898814245E3
:1011F00002D14FF001081DE0DFF88C81424502D199
:101200004FF0020816E0DFF88481424502D14FF02A
:1012100003080FE0DFF87881424502D14FF004085F
:1012200008E0DFF87081424502D14FF0050801E087
:101230004FF006084FEA83794FEA197908FA09F85E
:1012400048EA0505DFF850814FEA930948F829502C
:10125000D1F8048008F48038B8F5803F0BD1DFF86E
:101260003C81D8F8008048EA0008DFF83091C9F8DE
:1012700000800AE075E0DFF82481D8F8008028EAD1
:101280000008DFF81891C9F80080D1F8048008F44C
:101290000038B8F5003F0ED1DFF8008108F10408EE
:1012A000D8F8008048EA0008DFF8F09009F1040956
:1012B000C9F800800DE0DFF8E48008F10408D8F8F0
:1012C000008028EA0008DFF8D49009F10409C9F881
:1012D0000080D1F8048008F48018B8F5801F0ED182
:1012E000DFF8B88008F10808D8F8008048EA00085C
:1012F000DFF8A89009F10809C9F800800DE0DFF8CF
:101300009C8008F10808D8F8008028EA0008DFF877
:101310008C9009F10809C9F80080D1F8048008F41C
:101320000018B8F5001F0ED1DFF8708008F10C0826
:10133000D8F8008048EA0008DFF8609009F10C094D
:10134000C9F800800DE0DFF8548008F10C08D8F8E7
:10135000008028EA0008DFF8449009F10C09C9F878
:1013600000805B1CD1F8008028FA03F8B8F1000F68
:101370007FF47CAEBDE8F887000011100010024039
:1013800000080140000C0140001001400014014021
:1013900000180140001C0140080001400004014009
:1013A000024693680B400BB1012000E0002070471B
:1013B0000AB1016101E00B04036170470148006854
:1013C0007047000030060020034800680349097890
:1013D00008440149086070473006002038060020A4
:1013E00010B50848006840F0100006490860032066
:1013F00000F0A8F8002000F007F800F02BF800201B
:1014000010BD00000020024070B504460E48007870
:101410004FF47A71B1FBF0F00C490968B1FBF0F5BB
:10142000284600F051FE08B1012070BD102C07D2F3
:1014300000222146501E00F047F80548046001E0F4
:101440000120F2E70020F0E7380600203C060020EB
:101450003406002008B500BF1148806940F0010043
:101460000F4988610846806900F00100009000BFC4
:1014700000BF00BF0846C06940F08050C861084600
:10148000C06900F08050009000BF00BF00BF054958
:10149000486820F0E06040F00070486000BF08BD80
:1014A000001002400000014001460846002809DB08
:1014B00000F01F0301229A4043099B0003F1E0233F
:1014C000C3F8002100BF70472DE9F05F80460D464C
:1014D0001646002703F06CFB074639462A4633467A
:1014E00001F00700C0F1070ABAF1040F02D94FF06A
:1014F000040A01E0C0F1070AD14600F1040ABAF17A
:10150000070F02D24FF0000A01E0A0F1030AD4460F
:101510004FF0010A0AFA09FAAAF1010A0AEA020AD4
:101520000AFA0CFA4FF0010B0BFA0CFBABF1010BB2
:101530000BEA030B4AEA0B042146404603F040FB4A
:10154000BDE8F09F00BF00F00702064B19684FF698
:10155000FF031940044B0B4343EA0221014B19607E
:1015600000BF70470CED00E00000FA0501200149C2
:101570000862704700000E422DE9F04385B0064630
:1015800042A30FCB01AC0FC444A0006800904FF001
:101590000008002500270024A146042E36D004DCD4
:1015A000012E3BD0022E6BD15FE0082E32D0102EE0
:1015B00066D13B484468006800F0807000B301A821
:1015C000C4F38341475C04F4803070B13448406810
:1015D000C0F340401DF8008004F4803040B1314831
:1015E000B0FBF8F000FB07F502E02F4807FB00F521
:1015F0002B48406800F48000B0F5800F01D1A94667
:1016000003E068000321B0FBF1F93AE000F0D2F901
:10161000814636E000F0CEF9814632E02048046A87
:1016200004F44070B0F5807F05D104F0020010B1E1
:101630004FF4004918E004F44070B0F5007F07D182
:101640001748406A00F0020010B149F640490BE02B
:1016500004F44070B0F5407F06D11148006800F4F2
:10166000003008B14FF224490BE000F093F90C4927
:101670004968C1F38131491C4900B0FBF1F900E030
:1016800000BF00BF484605B0BDE8F0830203040573
:10169000060708090A0B0C0D0E0F101001020000BE
:1016A0000010024000127A0000093D00F8B504461F
:1016B00000260025207800F0010000286BD00027CC
:1016C0004348C06900F0805070B900BF4048C0690D
:1016D00040F080503E49C8610846C06900F0805023
:1016E000009000BF00BF01273A48006800F48070F6
:1016F000B0B93848006840F4807036490860FFF798
:101700005DFE064606E0FFF759FE801B642801D9FE
:101710000320F8BD2F48006800F480700028F2D044
:101720002B48006A00F440752DB3A08800F4407087
:10173000A84220D02648006A20F44075012026499E
:101740000860002008602248056205F0010090B1A1
:10175000FFF734FE064608E0FFF730FE801B41F23B
:101760008831884201D90320D3E71948006A00F084
:1017700002000028F0D01648006A20F4407061682A
:10178000084313490862012F04D10846C06920F0BC
:101790008050C86100BF207800F00200022807D105
:1017A0000B48406820F44040A1680843084948605D
:1017B000207800F01000102807D10548406820F478
:1017C000800061690843024948600020A1E70000E9
:1017D00000100240007000404004424270B50446D0
:1017E0000D460CB9012070BD5A48006800F0070092
:1017F000A8420ED25748006820F0070028435549F8
:1018000008600846006800F00700A84201D00120E7
:10181000E9E7207800F0020002281DD1207800F0CE
:101820000400042805D14C48406840F4E0604A496F
:101830004860207800F00800082805D14648406834
:1018400040F46050444948604348406820F0F0004C
:10185000A168084340494860207800F0010078B34F
:101860006068012806D13C48006800F4003090B957
:101870000120B8E76068022806D13748006800F008
:10188000007040B90120AEE73348006800F0020064
:1018900008B90120A7E73048406820F003006168DC
:1018A00008432D494860FFF789FD064609E0FFF728
:1018B00085FD801B41F28831884202D9032092E7DE
:1018C00007E02548406800F00C006168B0EB810F2C
:1018D000EDD12048006800F00700A8420ED91D484D
:1018E000006820F0070028431A490860084600688D
:1018F00000F00700A84201D0012074E7207800F032
:101900000400042807D11448406820F4E060E1682E
:10191000084311494860207800F00800082808D1E1
:101920000D48406820F46050216940EAC1000A492E
:10193000486000F03FF808494968C1F30311074ABD
:10194000515CC8400649086006480068FFF75CFD26
:10195000002048E70020024000100240985900088B
:101960003C06002034060020014800687047000053
:101970003C06002000B5FFF7F7FF04494968C1F3B2
:101980000221034A515CC84000BD00000010024023
:10199000A859000800B5FFF7E7FF04494968C1F3FB
:1019A000C221034A515CC84000BD00000010024043
:1019B000A8590008F0B585B00FF26C0C9CE8E01057
:1019C00001A8A0E8E0101CA52D68009500210022C8
:1019D000002300240020194D696801F00C05F5B1C1
:1019E000042D02D0082D19D101E0154819E001ADF0
:1019F000C1F38346AC5D01F4803555B10F4D6D6880
:101A0000C5F340451DF805200D4D6543B5FBF2F3C8
:101A100002E00C4D04FB05F3184602E000BF084845
:101A200000BF00BF05B0F0BD0203040506070809AA
:101A30000A0B0C0D0E0F10100102000000100240E6
:101A400000127A0000093D00F8B504460CB90120E7
:101A5000F8BD207800F00100002878D0F8484068F0
:101A600000F00C0004280CD0F548406800F00C0091
:101A7000082811D1F248406800F48030B0F5803F6A
:101A80000AD1EF48006800F4003000285FD0606899
:101A900000285CD10120DBE700BF6068B0F5803F23
:101AA00006D1E748006840F48030E549086028E046
:101AB000606858B9E248006820F48030E049086066
:101AC0000846006820F4802008601AE06068B0F5DD
:101AD000A02F0BD1DA48006840F48020D849086074
:101AE0000846006840F4803008600AE0D448006886
:101AF00020F48030D24908600846006820F4802035
:101B0000086000BF606888B1FFF758FC054606E032
:101B1000FFF754FC401B642801D9032098E7C8480C
:101B2000006800F400300028F2D010E0FFF746FC17
:101B3000054606E0FFF742FC401B642801D903205C
:101B400086E7BF48006800F400300028F2D1207812
:101B500000F00200022857D1B948406800F00C009C
:101B600050B1B748406800F00C00082818D1B448BC
:101B7000406800F4803098B9B148006800F0020075
:101B800020B12069012801D0012061E7AC4800683C
:101B900020F0F800616940EAC100A949086033E01B
:101BA0002069E8B10120A7490860FFF707FC054656
:101BB00006E0FFF703FC401B022801D9032047E79A
:101BC0009F48006800F002000028F2D09C4800689E
:101BD00020F0F800616940EAC1009949086013E00B
:101BE000002098490860FFF7E9FB054606E0FFF78B
:101BF000E5FB401B022801D9032029E79048006833
:101C000000F002000028F2D1207800F00800082837
:101C10002DD1A069B8B101208B490860FFF7CEFB38
:101C2000054606E0FFF7CAFB401B022801D9032046
:101C30000EE78348406A00F002000028F2D001203D
:101C400001F0B8FC13E000207F490860FFF7B6FB05
:101C5000054606E0FFF7B2FB401B022801D903202E
:101C6000F6E67748406A00F002000028F2D12078BA
:101C700000F00400042873D100277148C06900F007
:101C8000805070B900BF6E48C06940F080506C4908
:101C9000C8610846C06900F08050009000BF00BFD6
:101CA00001276A48006800F48070B0B9674800688E
:101CB00040F4807065490860FFF780FB054606E048
:101CC000FFF77CFB401B642801D90320C0E65F4876
:101CD000006800F480700028F2D000BFE06801289E
:101CE00006D15748006A40F001005549086227E0D4
:101CF000E06858B95248006A20F001005049086273
:101D00000846006A20F00400086219E0E06805282F
:101D10000BD14B48006A40F004004949086208466C
:101D2000006A40F0010008620AE04548006A20F0BD
:101D30000100434908620846006A20F00400086276
:101D400000BFE068A0B1FFF739FB054609E0FFF7E7
:101D500035FB401B41F28831884202D9032077E6E7
:101D600022E03748006A00F002000028EFD012E0BD
:101D7000FFF724FB054608E0FFF720FB401B41F27C
:101D80008831884201D9032062E62D48006A00F0BC
:101D900002000028F0D1012F05D12948C06920F0A8
:101DA00080502749C86100BFE069C8B32448406833
:101DB00000F00C00082860D0E069022848D100201B
:101DC00020490866FFF7FAFA054606E0FFF7F6FA3B
:101DD000401B022801D903203AE61948006800F0A8
:101DE00000700028F2D1206AB0F5803F07D1144876
:101DF000406820F40030A168084311494860D4E9E4
:101E0000080108430E49496821F4741108430C493C
:101E1000486001200B490866FFF7D0FA054607E045
:101E20003DE0FFF7CBFA401B022801D903200FE663
:101E30000348006800F000700028F2D02FE0000096
:101E40000010024000004242800442420070004004
:101E5000002014490866FFF7B1FA054606E0FFF7CF
:101E6000ADFA401B022801D90320F1E50E480068B5
:101E700000F000700028F2D111E0E069012800D1E3
:101E8000E6E50948466806F48031206A814204D1BB
:101E900006F47011606A814201D00120D8E500206B
:101EA000D6E50000000042420010024010B5034693
:101EB00000220020024A02EB81021468A0B210BD89
:101EC000006C004010B503460020034800EB810081
:101ED00094B2046010BD0000006C00407047704771
:101EE00010B504462068006800F00100F0B12068D9
:101EF000406800F00100C8B120684068C0F380006D
:101F000048B12046FFF7EBFF6FF0040021684860FE
:101F10000420607404E02046FFF7E0FF01206074B5
:101F20002068406820F001002168486010BD01462B
:101F300009B90120704700BF087C012801D10220A7
:101F4000F8E70120087400BF0220487408680068A0
:101F500040F001000A6810600120487400BF0020B2
:101F6000087400BF00BFE5E770B5044600250CB952
:101F7000012070BD607C20B900202074204600F054
:101F80005BF802206074204600F07EF818B104204F
:101F900060740120EDE7204601F085FB18B10420B4
:101FA00060740120E5E72068406820F007002168A0
:101FB0004860A06828B11F48006820F001001D4952
:101FC00008601C48001F006820F46070A168084386
:101FD0001849091F08606068401C08B1656809E07D
:101FE0000120FFF7C9FA05461DB9042060740120DD
:101FF000BFE76D1E2068806820F00F0040EA1540A2
:10200000216888602068C06865F30F002168C86097
:10201000204601F082FB18B1042060740120A8E77B
:102020000021E17301216173A1730120607400201C
:102030009FE70000306C004038B504460F49206827
:1020400088421AD1FFF792FA00BF0D48C06940F0EC
:1020500000600B49C8610846C06900F0006000904C
:1020600000BF00BF0120074908600022114603207D
:10207000FFF72AFA0320FFF717FA38BD00280040BF
:10208000001002403C04424270B5044600250CB9E1
:10209000012070BD2068406820F008002168486079
:1020A000FFF78CF9054607E0FFF788F9401BB0F50C
:1020B0007A7F01D90320ECE72068406800F008002F
:1020C0000028F1D00020E4E770B504462546681EDC
:1020D000B0F1807F01D301200FE0681E4FF0E021B6
:1020E00048610F214FF0FF3002F06AFD00204FF0F1
:1020F000E021886107200861002070BD70477047AB
:1021000030B502460B4600BF92F83C00012801D1D1
:10211000022030BD012082F83C0000BF022082F87E
:102120003D00106844681068816824F070041868E5
:10213000044310684460144D1068A84213D0134D36
:102140001068A8420FD01068B0F1804F0BD0104D2E
:102150001068A84207D00F4D1068A84203D00E4D5A
:102160001068A84205D121F0800158680143106829
:102170008160012082F83D0000BF002082F83C0011
:1021800000BF00BFC5E70000002C01400034014043
:102190000004004000080040000C004010B5044658
:1021A0000CB9012010BD94F83D0028B9002084F836
:1021B0003C00204600F026F8022084F83D00211D56
:1021C000206801F0A5FE012084F8460000BF84F8D5
:1021D0003E0001213F20015540200155412001557D
:1021E00000BF00BF012084F8420043200155442075
:1021F00001554520015500BF012084F83D00002015
:10220000D0E7000038B504460D492068884215D152
:1022100000BF0C48C06940F002000A49C861084686
:10222000C06900F00200009000BF00BF002211460C
:102230001D20FFF749F91D20FFF736F938BD0000D2
:102240000004004000100240014691F83D000128C2
:1022500001D001207047022081F83D000868C06865
:1022600040F001000B68D860164B0868984213D004
:10227000154B086898420FD00868B0F1804F0BD01A
:10228000124B0868984207D0114B0868984203D057
:10229000104B086898420CD10868806800F007026B
:1022A000062A0CD00868006840F001000B6818602E
:1022B00005E00868006840F001000B681860002025
:1022C000C8E70000002C0140003401400004004039
:1022D00000080040000C00402DE9F04104460D4686
:1022E00000BF94F83C00012802D10220BDE8F08133
:1022F000012084F83C0000BF022084F83D002068E3
:10230000866826F0770626F47F462068866028686F
:10231000502833D00CDC202850D004DC00284BD0CF
:10232000102851D149E0302849D040284CD139E01B
:1023300060282DD0702807D0B0F5805F03D0B0F5AD
:10234000005F41D10DE040E0D5E902136A682068E2
:1023500001F02CFE2068866846F0770620688660CB
:1023600033E0D5E902136A68206801F01FFE206897
:10237000806840F480402168886026E0EA686968E7
:10238000206801F027FE5021206801F01AFE1CE0B1
:10239000EA686968206801F030FE6021206801F079
:1023A00010FE12E0EA686968206801F013FE40211F
:1023B000206801F006FE08E000BF00BF00BF2968EA
:1023C000206801F0FEFD00E000BF00BF012084F89E
:1023D0003D0000BF002084F83C0000BF00BF85E73F
:1023E000704710B5044620680069C0F34000D8B1BA
:1023F0002068C068C0F34000B0B16FF002002168EF
:102400000861012020772068806900F0030018B17E
:102410002046FFF7E5FF05E0204600F0ADF8204636
:1024200000F0ABF80020207720680069C0F380003E
:10243000D8B12068C068C0F38000B0B16FF004006C
:1024400021680861022020772068806900F44070CC
:1024500018B12046FFF7C4FF05E0204600F08CF8D5
:10246000204600F08AF80020207720680069C0F339
:10247000C000D8B12068C068C0F3C000B0B16FF030
:10248000080021680861042020772068C06900F0F6
:10249000030018B12046FFF7A3FF05E0204600F037
:1024A0006BF8204600F069F800202077206800696A
:1024B000C0F30010D8B12068C068C0F30010B0B1FC
:1024C0006FF0100021680861082020772068C0693B
:1024D00000F4407018B12046FFF782FF05E0204667
:1024E00000F04AF8204600F048F8002020772068E5
:1024F000006900F0010058B12068C06800F00100D8
:1025000030B16FF0010021680861204600F036F814
:1025100020680069C0F3C01058B12068C068C0F3DB
:10252000C01030B16FF08000216808612046FFF7CD
:10253000E5FD20680069C0F3801058B12068C068CC
:10254000C0F3801030B16FF0400021680861204670
:1025500000F024F820680069C0F3401058B12068EA
:10256000C068C0F3401030B16FF0200021680861EE
:102570002046FFF7C4FD10BD7047704700B5024606
:1025800004491068884202D101200349087001F013
:1025900049FD00BD00040040040000207047704762
:1025A00010B504462068C06820F490702168C860A7
:1025B0002068406920F0010021684861206B0128F3
:1025C00005D12068C06820F010002168C86020682C
:1025D000406900F04000B8B12068406920F0400038
:1025E00021684861A06B78B10020A16B4863A06BA3
:1025F000FEF7D2F940B1A06BFEF7CEFA202803D146
:1026000010202064032010BD0020E085202084F8E5
:102610003E000020206300BFF5E770472DE9F84F2A
:102620000446206805682068C668206847694FF03E
:102630000009CA4605F00F09B9F1000F0AD105F0EB
:10264000200038B106F0200020B1204601F0C0FF84
:10265000BDE8F88FB9F1000F71D007F0010018B98B
:1026600006F4907000286AD005F0010030B106F43D
:10267000807018B1206C40F00100206405F0040067
:1026800030B107F0010018B1206C40F00200206466
:1026900005F0020030B107F0010018B1206C40F0E5
:1026A0000400206405F0080048B106F0200010B9CD
:1026B00007F0010018B1206C40F008002064206C85
:1026C00068B305F0200028B106F0200010B12046C4
:1026D00001F07EFF20684069C0F3801A206C00F092
:1026E000080010B9BAF1000F22D0204601F0E0FD39
:1026F0002068406900F04000B0B12068406920F0D7
:10270000400021684861A06B50B15648A16B4863F6
:10271000A06BFEF76DF910B1A06B416B88470CE020
:102720002046FFF77AFF08E02046FFF776FF04E037
:102730002046FFF772FF0020206489E7FFE7206B47
:10274000012878D105F01000002874D006F01000A0
:10275000002870D000BF0020009020680068009022
:1027600020684068009000BF00BF2068406900F00A
:102770004000C0B3A06B006840681FFA80F8B8F151
:10278000000F2FD0A08D40452CDDA4F82E80A06B2B
:10279000806920281FD02068C06820F480702168DC
:1027A000C8602068406920F0010021684861206805
:1027B000406920F0400021684861202084F83E00F4
:1027C000002020632068C06820F010002168C860E5
:1027D000A06BFEF7E1F8A08DE28D801A81B2204651
:1027E000FFF7DDFE34E7FFE7A08DE18D401A1FFA09
:1027F00080F8E08DE8B1B8F1000F1AD02068C06809
:1028000020F490702168C8602068406920F00100C1
:1028100021684861202084F83E0000202063206861
:10282000C06820F010002168C86041462046FFF7CC
:10283000B6FE0DE7FFE705F0800030B106F080003E
:1028400018B1204602F000F802E705F0400030B170
:1028500006F0400018B1204601F045FDF8E600BF43
:10286000F6E600008141000810B504460CB90120CD
:1028700010BDA06900B100E000BF94F83D0028B988
:10288000002084F83C00204600F028F8242084F83A
:102890003D002068C06820F400502168C8602046D0
:1028A00001F008FF2068006920F490402168086169
:1028B0002068406920F02A00216848612068C068CB
:1028C00040F400502168C86000202064202084F873
:1028D0003D0084F83E000020CAE7000010B586B035
:1028E000044600200290039004900590B1492068AE
:1028F000884237D100BFB048C06940F40020AE49DB
:10290000C8610846C06900F40020019000BF00BF04
:1029100000BF0846806940F0100088610846806961
:1029200000F01000019000BF00BF081502900220C7
:1029300003900320059002A9A048FEF791FB4FF4F5
:102940000060029000200390049002A99B48FEF7CB
:1029500087FB002211463420FEF7B6FD3420FEF737
:10296000A3FD24E196492068884243D100BF9248E4
:10297000C06940F480109049C8610846C06900F4FD
:102980008010019000BF00BF00BF0846806940F082
:10299000100088610846806900F01000019000BFB7
:1029A00000BF00BF0846806940F0200088610846EB
:1029B000806900F02000019000BF00BF88140290E1
:1029C000022003900320059002A97C48FEF748FBF3
:1029D0000420029000200390049002A97948FEF799
:1029E0003FFB002211463520FEF76EFD3520FEF735
:1029F0005BFDDCE07449206888426AD100BF6E4804
:102A0000806940F480406C4988610846806900F420
:102A10008040019000BF00BF00BF0846806940F0C1
:102A2000040088610846806900F00400019000BF3E
:102A300000BF48150290022003900320059002A9D0
:102A40006248FEF70DFB4FF4806002900020039077
:102A5000049002A95D48FEF703FB5D485D490860EC
:102A60000020486000215B4881608021C160002116
:102A7000016141618161C161FEF75EFA08B1FDF754
:102A80008AFF00BF5348A063446200BF5048143817
:102A9000514908601020486000214F488160802122
:102AA000C1600021016141618161C161FEF744FAA9
:102AB00008B1FDF770FF00BF47486063446200BF84
:102AC000002211462520FEF7FFFC2520FEF7ECFC36
:102AD0006DE042492068884269D100BF3648C0692C
:102AE00040F400303449C8610846C06900F4003041
:102AF000019000BF00BF00BF0846806940F004009D
:102B000088610846806900F00400019000BF00BFA2
:102B100004200290022003900320059002A92B4874
:102B2000FEF79EFA0820029000200390049002A96C
:102B30002648FEF795FA26481430294908600020F7
:102B400048600021264881608021C1600021016128
:102B500041618161C161FEF7EFF908B1FDF71BFF2B
:102B600000BF1F48A063446200BF194828301D49B8
:102B700008601020486000211A4881608021C160EF
:102B80000021016141618161C161FEF7D5F908B1A0
:102B9000FDF701FF00BF13486063446200BF0022DD
:102BA00011462620FEF790FC2620FEF77DFC06B09D
:102BB00010BD0000004C0040001002400010014019
:102BC000005000400014014000380140000801405E
:102BD000580002409C1A0020E01A002000440040E7
:102BE000241B0020681B002070B504460D461646C5
:102BF00094F83E00202816D105B10EB9012070BD11
:102C000000BF94F83C00012801D10220F7E7012021
:102C100084F83C0000BF002020633246294620464D
:102C200001F0C6FDEBE70220E9E7704770472DE9A8
:102C3000F84F04460E46174699464FF0000A94F89E
:102C40003D0020285AD106B117B90120BDE8F88F00
:102C500000BF94F83C00012801D10220F6E70120D2
:102C600084F83C0000BF00202064212084F83D004F
:102C7000FEF7A4FB8246A784E784A068B0F5805FD6
:102C800004D1206910B90025B04602E035464FF066
:102C9000000800BF002084F83C0000BF1BE0534642
:102CA000002280212046CDF8009001F0FDFD08B102
:102CB0000320CBE745B9B8F80000C0F3080021684D
:102CC000486008F1020803E02878216848606D1C1C
:102CD000E08C401EE084E08C0028E0D153460022C6
:102CE00040212046CDF8009001F0DEFD08B1032020
:102CF000ACE7202084F83D000020A7E70220A5E7EC
:102D0000F7B50446154694F83D0020283DD10198BA
:102D100000B10DB90120FEBD00BF94F83C000128B0
:102D200001D10220F7E7012084F83C0000BF0198A0
:102D30002062A584E58400202064212084F83D00E1
:102D40001348616B88621348616BC8621248616BFB
:102D500008630020616B486301AE23681A1D316867
:102D60002B46606BFEF72EF96FF04000216808607B
:102D700000BF002084F83C0000BF2068406940F09C
:102D80008000216848610020C5E70220C3E70000F9
:102D90006D420008A34200089541000810B50446A2
:102DA000CE49206888426FD10020CD498875A06B3C
:102DB0000068CC4988425FD9606B0068C94978399E
:102DC000884201D1022053E0606B0068C549643934
:102DD000884201D120204BE0606B0068C149503926
:102DE000884201D1401543E0606B0068BD493C3921
:102DF000884202D14FF400503AE0606B0068B94954
:102E00002839884202D14FF4003031E0606B00680D
:102E1000B4491439884202D14FF4001028E0606BA5
:102E20000068B049884201D1800421E0606B0068ED
:102E3000AD49884201D102201AE0606B0068AA49BE
:102E40001431884201D1202012E0606B0068A6494D
:102E50002831884201D140150AE0606B0068A24920
:102E60003C31884202D14FF4005001E04FF4003071
:102E70009D49091F086030E1606B00689949783905
:102E8000884202D1022054E057E0606B0068954907
:102E90006439884201D120204BE0606B0068914981
:102EA0005039884201D1401543E0606B00688D497C
:102EB0003C39884202D14FF400503AE0606B006820
:102EC00088492839884202D14FF4003031E0606BE4
:102ED000006884491439884202D14FF4001028E078
:102EE000606B00687F49884201D1800421E0606BFB
:102EF00000687D49884201D102201AE0606B0068B9
:102F000079491431884201D1202012E0606B0068B9
:102F100075492831884201D140150AE0606B00688C
:102F200071493C31884202D14FF4005001E04FF426
:102F300000306C4980394860CFE06C492068884295
:102F400099D181156A48FDF738F90020694908814F
:102F50008875A06B0068634988425FD9606B006820
:102F600060497839884201D1022053E0606B0068E3
:102F70005C496439884201D120204BE0606B0068D5
:102F800058495039884201D1401543E0606B0068D0
:102F900054493C39884202D14FF400503AE0606B0A
:102FA000006850492839884202D14FF4003031E09E
:102FB000606B00684B491439884202D14FF400100D
:102FC00028E0606B00684749884201D1800421E015
:102FD000606B00684449884201D102201AE0606BAE
:102FE000006841491431884201D1202012E0606B11
:102FF00000683D492831884201D140150AE0606BE4
:10300000006839493C31884202D14FF4005001E058
:103010004FF400303449091F08605EE0606B0068BF
:1030200030497839884201D1022053E0606B006852
:103030002C496439884201D120204BE0606B006844
:1030400028495039884201D1401543E0606B00683F
:1030500024493C39884202D14FF400503AE0606B79
:10306000006820492839884202D14FF4003031E00D
:10307000606B00681B491439884202D14FF400107C
:1030800028E0606B00681749884201D1800421E084
:10309000606B00681449884201D102201AE0606B1D
:1030A000006811491431884201D1202012E0606B80
:1030B00000680D492831884201D140150AE0606B53
:1030C000006809493C31884202D14FF4005001E0C8
:1030D0004FF4003003498039486010BD004400407F
:1030E00044170020800002400804024000380140DC
:1030F0005C1700205C180020704700BFFEE7014607
:10310000CA1701EB92729210A1EB820292B964206D
:1031100091FBF0F200FB121050B94FF4C87091FB14
:10312000F0F200FB121008B9012070470020FCE704
:103130000120FAE70020F8E770B50646002416E003
:103140000C49095D41F0B00001F08AFC102001F04B
:1031500087FC012001F084FC002504E0304601F0EA
:10316000C1FC681CC5B2802DF8DB601CC4B2082C01
:10317000E6DB70BD250000202DE9F04104460D4638
:103180009046A8F120004FF6FF7101EA001705F004
:103190000701214A515C41F0B00001F061FC611C63
:1031A000102242EA211001F05BFC611C01F00F00CB
:1031B00001F056FC002607E01849C85D01F092FCBA
:1031C000781C87B2701CC6B2082EF5DB681CC5B22D
:1031D00005F00701104A515C41F0B00001F040FCDD
:1031E000611C102242EA211001F03AFC611C01F03E
:1031F0000F0001F035FC002607E00849C85D01F02A
:1032000071FC781C87B2701CC6B2082EF5DB681EF4
:10321000C5B2BDE8F0810000250000202D0000208F
:1032200070B505460E46144611E0782D02DDB01C3F
:10323000C6B20025062E01DD002600252278314683
:103240002846FFF799FF641C05F10800C5B22078F5
:103250000028EAD170BD000010B50A2002F072F912
:10326000002240211F48FEF7A3F8C82002F06AF9A7
:10327000012240211B48FEF79BF8322002F062F940
:10328000AE2001F0EDFBA22001F0EAFBA02001F04E
:10329000E7FBC02001F0E4FB242001F0E1FB8120EA
:1032A00001F0DEFB302001F0DBFB2F2001F0D8FB2A
:1032B000A62001F0D5FBA42001F0D2FB402001F0B4
:1032C000CFFBB02001F0CCFB102001F0C9FB0120A6
:1032D00001F0C6FB0020FFF72FFFAF2001F0C0FB7D
:1032E00010BD00000010014008B500BF164840693D
:1032F00040F00100144948610846406900F00100AF
:10330000009000BF00BF002211460E20FEF7DCF83F
:103310000E20FEF7C9F8002211460F20FEF7D4F860
:103320000F20FEF7C1F8002211461020FEF7CCF85E
:103330001020FEF7B9F8002211461120FEF7C4F85C
:103340001120FEF7B1F808BD0010024000B585B0AD
:1033500000BF2248806940F010002049886108467B
:10336000806900F01000009000BF00BF00BF084659
:10337000806940F0200088610846806900F02000E4
:10338000009000BF00BF00BF0846806940F0040005
:1033900088610846806900F00400009000BF00BF0B
:1033A00000BF0846806940F00800886108468069CF
:1033B00000F00800009000BF00BF002001900290C4
:1033C000039004908814019001200290032004903F
:1033D00001A90348FDF744FE05B000BD00100240FE
:1033E000000C014000B587B00020039004900590C8
:1033F00006900190029014481449086040F2CF20D2
:1034000048600021114881606321C1600021016191
:103410008161FEF7C3FE08B1FDF7BDFA4FF480509D
:10342000039003A90948FEF757FF08B1FDF7B3FA67
:1034300000200190029001A90448FEF761FE08B146
:10344000FDF7A9FA07B000BD00040040FC0600200B
:1034500010B50B480B4908604FF4E130486000217B
:1034600008488160C16001610C21416100218161D6
:10347000C161FFF7F9F908B1FDF78DFA10BD000041
:10348000004C00408C19002010B50B480B49086017
:103490004FF4E1304860002108488160C16001615B
:1034A0000C21416100218161C161FFF7DDF908B1A3
:1034B000FDF771FA10BD000000500040D019002047
:1034C00010B50B480B4908604FF4E130486000210B
:1034D00008488160C16001610C2141610021816166
:1034E000C161FFF7C1F908B1FDF755FA10BD000041
:1034F00000380140141A002010B50B480B49086031
:103500004FF4E1304860002108488160C1600161EA
:103510000C21416100218161C161FFF7A5F908B16A
:10352000FDF739FA10BD000000440040581A002091
:103530001CB51C481C4908604FF0FF304860002152
:10354000194881600121FEF7B1FC45F65A218842F5
:103550001AD01548FEF708FD08B1FDF71CFA12480D
:10356000FEF7E5FC08201E210D231922CDE90010ED
:103570000B2140F2E57000F0EBF945F65A220121EB
:103580000948FEF79FFC08E00748FEF7EDFC08B18C
:10359000FDF701FA0448FEF7CAFC00F0DBF8002052
:1035A0001CBD000000280040E806002000BFFEE728
:1035B0007047704708B508490968C9084FF47A721E
:1035C000B1FBF2F14143009100BF00BF00994A1ED8
:1035D00000920029F9D108BD3C060020F8B5064646
:1035E0000C4615461348C0790090124883798288AA
:1035F00011A1204601F0C8FA204601F0B5FA0D48A5
:10360000807800900B484378027810A1304601F092
:10361000BBFA304601F0A8FA0648027A10A1284603
:1036200001F0B2FA284601F09FFA0FA001F09CFACF
:10363000F8BD000040060020253264C4EA2532644B
:10364000D4C2253264C8D52D2D2D0000253264B595
:10365000E3253264B7D6253264C3EB2D2D2D00004F
:10366000D0C7C6DA256400000D0A000070B5044614
:103670000025FDF7A3FE054607E0FDF79FFE401B72
:10368000B0F57A7F01D9032070BD2068406800F052
:1036900020000028F1D02068406840F01000216828
:1036A00048600020F0E770B504460025FDF786FE6F
:1036B000054607E0FDF782FE401BB0F57A7F01D991
:1036C000032070BD2068406800F020000028F1D081
:1036D0002068406840F01000216848600020F0E752
:1036E00070B5044600252068406820F0100021686D
:1036F0004860FDF763FE054607E0FDF75FFE401BEF
:10370000B0F57A7F01D9032070BD2068406800F0D1
:1037100020000028F1D00020F6E770B5044600250F
:103720002068406820F0100021684860FDF746FEE0
:10373000054607E0FDF742FE401BB0F57A7F01D950
:10374000032070BD2068406800F020000028F1D000
:103750000020F6E770B50026002400253A4800F066
:10376000DDF806463948C6603948B6FBF0F43948FA
:103770000088A0423CD037490C804FF4FA6510E035
:103780002846FFF7BCFC40B1B4F5B77F02D3A4F5DF
:10379000B77404E0681C85B206E0A4F26D14681CDE
:1037A00085B2B4F5B67FEBD800BF284885800025E8
:1037B00016E026498888FFF7A2FC30B1012D04D11C
:1037C0001D2C01D31D3C09E00CE02348405DA042C4
:1037D00003D82148405D241A00E003E0681C85B24C
:1037E0001C2CE6D200BF681C18498871601CC87187
:1037F0001748B6FBF0F100FB11644FF46160B4FBB5
:10380000F0F0124908704FF46160B4FBF0F100FB76
:1038100011403C21B0FBF1F00C4948704FF461605D
:10382000B4FBF0F100FB11403C21B0FBF1F201FBD5
:103830001200064988700B46DA799979988800F069
:103840000DF80249087270BDE8060020400600200D
:1038500080510100000000208C5900082DE9F04F34
:1038600004460D46164600BF012D01D0022D0FD192
:10387000601E4FF0640890FBF8F0C3B2601E90FB2E
:10388000F8F908FB1900C2B205F10C00C7B20AE052
:10389000642094FBF0F0C3B2642094FBF0F800FBCA
:1038A0001840C2B22F46B44607F101094FF01A0A78
:1038B00009FB0AF94FF00A0A99FBFAF94FEAE27A92
:1038C00002EB9A7A02EBAA0A4FEAE37B03EB9B7BBB
:1038D0000AEBAB0A4FF0020B0BFB13AAD144E144F5
:1038E000A9F10101002905DB072091FBF0F800FB9D
:1038F000181005E0072091FBF0F800FB1810C01D20
:10390000014601B90721C8B2BDE8F08F10B50248E1
:10391000FEF7E6FA10BD0000E806002030B50146CB
:1039200000220023002400200D68AD69AAB20D68B2
:10393000ED69ACB20D68AD69ABB29A4205D00D68C5
:10394000ED6963F31F45284601E044EA024030BDBB
:103950002DE9F05F06460F4690469946DDE90AAB31
:103960000024B6F5FA6F03DB40F65100864202DD13
:103970000120BDE8F09F4FF4FA650AE02846FFF702
:10398000BEFB10B12948044401E029480444681CE6
:1039900085B2B542F2DB781EC7B2002510E025489B
:1039A000405D40F2A321484304EBC0143046FFF7CA
:1039B000A6FB18B1012D01D11F480444681C85B233
:1039C000BD42ECDBA8F1010040F2A321484304EB27
:1039D000C014C9EB4910C0EB092004EB0014CAEB7A
:1039E0000A1004EB80045C4402201449487400BFB0
:1039F0000846007C012801D10220BAE701200F49C6
:103A0000087400BF21460D4800F01AF820B10420C8
:103A10000A4948740120ACE701200849487400BFF6
:103A20000020087400BF00BFA3E700000085E2018A
:103A30008033E1018C59000880510100E806002024
:103A400070B504460D4600262046FFF70FFE08B16C
:103A500001260AE0280C21688861A8B22168C861A3
:103A60002046FFF73DFE00B10126304670BD000044
:103A700010B5FFF76FFE034A03490448FFF7AEFD98
:103A800010BD0000B4060020500600208206002071
:103A900010B5044600BF0549204600F06BF92079B7
:103AA0000228F8D020790328F5D010BD6F1F00B090
:103AB0002DE9FE4F044600BF6149204600F05AF947
:103AC0006049204600F056F9608800B2A4F805006D
:103AD00020798DF804005C49204600F04BF960889D
:103AE00001B2601DA4F8071020798DF80500574930
:103AF000204600F03FF9608801B2601DA4F809106B
:103B000020798DF806005249204600F033F960888C
:103B100001B2601DA4F80B1020798DF807004D4903
:103B2000204600F027F9608801B2601DA4F80D104E
:103B300020798DF808004849204600F01BF960887C
:103B400001B2601DA4F80F1020798DF809004349D7
:103B5000204600F00FF9608801B2601DA4F8111032
:103B600020798DF80A00B4F90B00FCF7CBFC054670
:103B70004FF066323A4BFCF756FC07460022394BB1
:103B8000FCF738FB8246FCF7E1FCC4F81300B4F9FB
:103B90000D00FCF7B7FC07460022334BFCF7D1FBC6
:103BA0000546FCF7D3FCC4F81700B4F90F00FCF786
:103BB000A9FC074600222C4BFCF7C3FB0546FCF78B
:103BC000C5FCC4F81B00B4F91100FCF79BFC0546CA
:103BD0000022254BFCF7B5FB0746FCF7B7FCC4F801
:103BE0001F00601D00900E2220490098FCF735FE52
:103BF0004FF0000919E001A810F80900032802D1CC
:103C00002071BDE8FE8F01A810F80900022801D13B
:103C10002071F6E701A810F80900012801D12071F0
:103C2000EFE709F1010000F0FF09B9F1070FE2DB4E
:103C3000207900287FF440AF207100BFE1E7000049
:103C4000F7000004FD000008FB00000CEF0000146A
:103C5000C7000024CD000028CB00002C91000040BC
:103C600066E63240001071C00080763FAC1B002039
:103C700010B504460849204600F07CF800BF06490C
:103C8000204600F077F820790228F8D02079032820
:103C9000F5D0608810BD0000E500001870B504463E
:103CA0000D46114E35B1012D06D0022D07D0032D42
:103CB00009D106E00C4E08E00B4EE33605E00B4E52
:103CC00003E00B4E01E0084E00BF00BF00BF3146CD
:103CD000204600F04FF820790228F8D020790328F8
:103CE000F5D0657070BD00001F0000B4250200B45F
:103CF000380300B410B5044600201A490870487013
:103D000048800871A1F8050000211648A0F80710A6
:103D1000A0F80910A0F80B10A0F80D10A0F80F10D3
:103D2000A0F811101048114908604FF48071104834
:103D3000FCF743FA0A2001F005FC21460948FFF789
:103D4000ADFF052001F0FEFB00BF0648FFF790FF26
:103D5000044800790028F8D10248FFF799FE0020B6
:103D600010BD0000AC1C0020CDCCC7C2200000203C
:103D7000AC1B00202DE9FC4104460D4600202071BB
:103D8000280E8DF80000280C8DF80100280A8DF807
:103D90000200E8B28DF80300142001F0F1FB0022CC
:103DA00020212E48FDF704FB00269DF8000001F0BD
:103DB00049FD01463246761C01A881549DF8010058
:103DC00001F040FD01463246761C01A881549DF861
:103DD000020001F037FD01463246761C01A88154ED
:103DE0009DF8030001F02EFD01463246761C01A825
:103DF0008154012220211948FDF7DAFA0A2001F046
:103E0000BFFB9DF8040000069DF8051000EB014083
:103E10009DF8061000EB01273846FCF754FD9DF88D
:103E20000710884204D0022020712079BDE8FC816F
:103E30009DF8040000F0030020702078032802D1D0
:103E40000120207101E0002020719DF806009DF8FE
:103E5000051000EB012060802079E7E7000C0140AD
:103E6000704710B504462046FEF7EEF910BD10B5B8
:103E7000FDF7AAFA10BD00B595B028210BA8FCF7F4
:103E80009CF9142106A8FCF798F918216846FCF75C
:103E900094F90D200B904FF480300C9000200D9081
:103EA00001200E900F90119002201290C1031391E7
:103EB0004FF4E01114910BA8FDF7C6FD08B1FCF713
:103EC0006AFD0F20069002200790002008904FF412
:103ED0008060099000200A90022106A8FDF77EFC70
:103EE00008B1FCF758FD01200090000201906846DF
:103EF000FDF7DCFB08B1FCF74EFD15B000BD7047C7
:103F000010B50248FEF76DFA10BD0000FC06002057
:103F100010B50268204B98420ED0204B98420BD02F
:103F2000B0F1804F08D01E4B984205D01D4B9842EF
:103F300002D01D4B984203D122F070024B681A4305
:103F4000154B98420ED0154B98420BD0B0F1804FD4
:103F500008D0134B984205D0124B984202D0124B16
:103F6000984203D122F44072CB681A4322F08003B6
:103F70004C6943EA040202608B68C3620B68836287
:103F8000054B984202D0054B984201D10B6903635F
:103F90000123436110BD0000002C014000340140AA
:103FA0000004004000080040000C004030B50C4602
:103FB000816821F47F4142EA03252543294381603A
:103FC00030BD0A46816821F0700142F007031943B1
:103FD0008160704730B50B461446026A056A25F0C9
:103FE00001050562816921F0F00141EA041122F026
:103FF0000A021A438161026230BD30B50B46144695
:10400000056A25F0100505628169026A21F4704194
:1040100041EA043122F0A00242EA03128161026205
:1040200030BD000034480078002864D000203249B8
:1040300008703248007D80B131480088401E304908
:1040400008800846008840B900202C4908750846B9
:104050000089002801DD012048752A48007D80B1D3
:1040600029480088401E284908800846008840B931
:1040700000202449087508464089002801DD0120F8
:1040800048752248007D78B120488089401E1F492C
:1040900088810846808938B900200875084600895B
:1040A000002801DD012048751948008820B1184812
:1040B0000088401E164908801648008820B115481F
:1040C0000088401E1349088013480088401C80B2B5
:1040D00011490880B0F57A7F0DDB002008800F4879
:1040E0000068401C20B10D480068401C0B49086066
:1040F00001200B4908707047040000205C18002064
:104100000600002044170020080000207419002039
:104110000A0000200C0000200E00002010000020EB
:10412000140000200F48006800F02000C8B164208F
:104130000D4988810846007D08B9012008750949A4
:10414000091D0968CAB208490889411C064B198132
:1041500006490A5418460089FF2802DD0020194646
:1041600008817047004C004074190020741800202A
:1041700010B50248FEF752FA10BD0000D019002019
:1041800070B505466C6A0020E085E0842046FEF7A5
:1041900044FA70BD70B506460025746A206840690F
:1041A000C0F3C01594F83D00212805D125B10020A9
:1041B000E084204600F0A7F820684069C0F380152D
:1041C00094F83E00222805D125B10020E085204644
:1041D00000F06EF8206C40F0100020642046FEF7DE
:1041E0001CFA70BD70B505466C6A2868006800F05E
:1041F0002000F8B90020E0852068C06820F48070B5
:104200002168C8602068406920F001002168486189
:104210002068406920F0400021684861202084F82F
:104220003E00206B012805D12068C06820F01000F6
:104230002168C860206B012804D1A18D2046FEF7BB
:10424000AEF902E02046FEF7F0FC70BD70B5054601
:104250006C6A206B012805D1A08D41082046FEF72D
:104260009EF902E02046FEF7E1FC70BD70B5054600
:104270006C6A2868006800F0200070B90020E084B3
:104280002068406920F08000216848612068C0688B
:1042900040F040002168C86002E02046FEF77EFD45
:1042A00070BD70B50446656A2846FEF725FF70BDEF
:1042B0000168C96821F490710268D1600168496998
:1042C00021F0010102685161016B012905D10168EA
:1042D000C96821F010010268D160202180F83E10E9
:1042E00000210163704710B504462068C06820F0C3
:1042F00040002168C860202084F83D002046FEF779
:104300004DFD002010BD0168C96821F0C0010268A0
:10431000D160202180F83D1070470000F8B50446B8
:104320000025002620680068C0F300152068C068DA
:1043300000F01006002D76D0002EFCD000BF00202B
:10434000009020680068009020684068009000BFDE
:1043500000BF202084F83D00A06B0068006820F0BA
:104360000100A16B09680860A06B00688949884258
:1043700060D9A06B006887497839884201D1022052
:1043800054E0A06B006883496439884201D1202041
:104390004CE0A06B00687F495039884201D140153C
:1043A00044E0A06B00687B493C39884202D14FF45D
:1043B00000503BE0A06B006876492839884202D162
:1043C0004FF4003032E0A06B006872491439884223
:1043D00002D14FF4001029E0A06B00686D498842BB
:1043E00001D1800422E0A06B00686B49884201D1B2
:1043F00002201BE0A06B006867491431884201D19C
:10440000202013E0A06B006863492831884201D165
:1044100040150BE0A06B00685F493C31884203D136
:104420004FF4005002E0B4E04FF400305A49091F45
:1044300008605EE0A06B006856497839884201D177
:10444000022053E0A06B006852496439884201D1D0
:1044500020204BE0A06B00684E495039884201D1C2
:10446000401543E0A06B00684A493C39884202D1BC
:104470004FF400503AE0A06B006846492839884262
:1044800002D14FF4003031E0A06B0068414914398B
:10449000884202D14FF4001028E0A06B00683D492B
:1044A000884201D1800421E0A06B00683A4988422B
:1044B00001D102201AE0A06B00683749143188420C
:1044C00001D1202012E0A06B0068334928318842D6
:1044D00001D140150AE0A06B00682F493C318842A9
:1044E00002D14FF4005001E04FF4003029498039E7
:1044F000486000BF0020A16B81F8200000BF274961
:10450000206888422CD12046FEF74AF824480068EB
:104510004068C0F5006023490881C820224908800E
:104520000120204908750A894989204BC81820496B
:10453000FBF72AFE1B4840891A4909890844194992
:1045400048814FF400611A48FBF737FE00201549F7
:1045500008814FF4006216491648FEF745FB18E043
:1045600015492068884214D12046FEF719F81348EF
:1045700000684068C0F5807011490881C820114961
:10458000088001200E49087502020F490F48FEF706
:104590002BFBF8BD800002400804024000440040AC
:1045A000241B00204417002008000020440F002096
:1045B00044070020581A0020003801409C1A0020AF
:1045C0005C180020060000205C170020141A002050
:1045D000F8B5044694F83E00222869D1A068B0F5E9
:1045E000805F0CD1206950B90025A66A2068406818
:1045F000C0F308003080A06A801CA06215E0A56AA4
:104600000026A068B0F5805F03D0A06828B92069B3
:1046100018B920684068287004E02068406800F0FD
:104620007F002870A06A401CA062E08D401E80B20E
:10463000E085A8BB2068C06820F020002168C86021
:104640002068C06820F480702168C86020684069D4
:1046500020F0010021684861202084F83E00206B92
:1046600001281ED1002020632068C06820F01000BF
:104670002168C8602068006800F0100010280AD186
:1046800000BF00200090206800680090206840680B
:10469000009000BF00BFA18D2046FDF780FF03E022
:1046A00004E02046FEF7C1FA0020F8BD0020FCE738
:1046B0000220FAE770B504462168096921F44051E7
:1046C000E2681143226811612269A168114362699D
:1046D00041EA02052168C96841F20C62914329430D
:1046E0002268D1602168496921F44071A2691143AF
:1046F000226851612D4A2168914202D1FDF74AF9A1
:1047000001E0FDF737F900EBC00101EB0011626831
:104710009200B1FBF2F100EBC00202EB0012636801
:104720009B00B2FBF3F26423B2FBF3F202EBC20391
:1047300003EB0212A1EB8201322202EB011164228F
:10474000B1FBF2F101F0F00100EBC00202EB00124C
:1047500063689B00B2FBF3F26423B2FBF3F201EB5C
:10476000021200EBC00101EB001163689B00B1FB7A
:10477000F3F100EBC00303EB00136668B600B3FB74
:10478000F6F36426B3FBF6F303EBC30606EB031361
:10479000A1EB8301322303EB01116423B1FBF3F19D
:1047A00001F00F0111442268916070BD0038014092
:1047B00077B581B0044615460298A062A585002011
:1047C0002064222084F83E001C48A16B88621C48AB
:1047D000A16BC8621B48A16B08630020A16B4863F2
:1047E00002AE32682368191D2B46A06BFCF7EAFB6A
:1047F00000BF00200090206800680090206840689A
:10480000009000BF00BF00BF002084F83C0000BF44
:104810002068C06840F480702168C86020684069E2
:1048200040F00100216848612068406940F0400084
:1048300021684861002004B070BD0000E541000817
:104840004D42000895410008014691F83D0021289D
:1048500028D18868B0F5805F0BD1086948B90A6A29
:104860001088C0F308000B685860086A801C086252
:1048700005E00B6A581C086218780B685860C88CF1
:10488000401E80B2C88458B90868C06820F0800013
:104890000B68D8600868C06840F040000B68D860BA
:1048A000002070470220FCE72DE9F04104460D4648
:1048B00017469846069E21E0701CF8B12EB1FCF711
:1048C0007DFDA0EB0800B04218D92068C06820F434
:1048D000D0702168C8602068406920F0010021681C
:1048E0004861202084F83D0084F83E0000BF00208D
:1048F00084F83C0000BF0320BDE8F0812068006818
:104900002840A84201D1012000E00020B842D3D0C5
:104910000020F1E710B50348FFF700FD0148FDF75F
:104920007DFE10BD141A002010B50348FFF7F6FCF9
:104930000148FDF773FE10BD581A002000BF05495D
:10494000096801F040010029F9D00249091D0860F9
:1049500070470000004C004000B5024603E01078AC
:10496000FFF7ECFF521C10780028F8D100BD0000C2
:1049700010B500202E4908704FF400612D48FBF758
:104980001CFC4FF400612C48FBF717FC18212B4846
:10499000FBF713FC27482949086027484860642032
:1049A00008610020087548754FF480712448FBF7B2
:1049B00004FC18212348FBF700FC2148214908602A
:1049C0000020087548754FF480711F48FBF7F5FB10
:1049D00018211E48FBF7F1FB1B481C49086000200A
:1049E000087548751A480068C06840F010001849FA
:1049F0000968C8604FF4807211491548FEF7F4F851
:104A000014480068C06840F0100012490968C86086
:104A10004FF4006207490F48FEF7E6F80E480068B9
:104A2000C06840F020000C490968C86010BD000053
:104A30001400002044070020440F002044170020E9
:104A40005C1700205C1800207418002074190020E6
:104A5000141A0020581A00208C19002000BFFEE70D
:104A600070B5054600224FF400411C48FCF7A0FC3D
:104A7000002280211A48FCF79BFC002425E001223B
:104A800011021748FCF794FC05FA04F000F08000CE
:104A900028B1012251021248FCF78AFC05E00022ED
:104AA0004FF400710E48FCF783FC00224FF4807134
:104AB0000B48FCF77DFC052000F062FD012211028D
:104AC0000748FCF775FC601CC4B2082CD7DB012238
:104AD000D1030248FCF76CFC70BD0000000C0140E3
:104AE0000010014070B5054600224FF400411C48FB
:104AF000FCF75EFC012280211A48FCF759FC0024D7
:104B000025E0012211021748FCF752FC05FA04F0D7
:104B100000F0800028B1012251021248FCF748FC45
:104B200005E000224FF400710E48FCF741FC002222
:104B30004FF480710B48FCF73BFC052000F020FD92
:104B4000012211020748FCF733FC601CC4B2082C98
:104B5000D7DB0122D1030248FCF72AFC70BD00001C
:104B6000000C0140001001400FB4054B10B503A923
:104B7000044A029800F00AF910BC5DF814FB00002A
:104B800001560008180000200FB4084B10B504A906
:104B900002AA039800F0FAF8044602A9002000F0E7
:104BA0008CFC204610BC5DF814FB0000BB540008D0
:104BB00002480068C0F30220704700000CED00E0DE
:104BC00010B5002804DB0A07130E054A135406E04B
:104BD0000A07140E034A00F00F031B1FD45410BD24
:104BE00000E400E018ED00E002E008C8121F08C170
:104BF000002AFAD170477047002001E001C1121F5E
:104C0000002AFBD1704700002DE9FF5F82B0002130
:104C1000DDE90430020DDDF840B0034318D044F65E
:104C20001050A2F2FF3242431514119801281FD0F0
:104C3000A5EB0B00401C5FEA000A4FF000064E4F48
:104C4000DFF83891B046504615D5CAF1000413E09C
:104C5000119801244AA3012801D16FEA0B0102989F
:104C6000119AC0E90031C0E9024206B0BDE8F09FE8
:104C7000CBF10000DFE704460021404A491842EB2F
:104C80000450CDE9001012E0E00707D032463B4661
:104C900040464946FBF755FB8046894632463B462F
:104CA00010461946FBF74DFB06460F466410002CD4
:104CB000EAD1DDE90401DDE90023BAF1000F06DAEB
:104CC000FBF73FFB42464B46FBF73BFB05E0FBF7A0
:104CD000AAFB42464B46FBF7A6FB04460E460022C3
:104CE000284BFBF763FD03D84FF0FF30014607E088
:104CF0000022254B20463146FBF77CFAFBF73EFDB0
:104D0000102409E0002C0ADB0A220023FBF750FCE8
:104D1000039B30321A55641E50EA0102F2D1641C22
:104D2000039AC4F111031444119A012A03D00122F9
:104D300008430DD10AE0084304D000204FF0110BC6
:104D4000119072E7A3EB0B056D1E0DE05B4504DDD2
:104D50004FF0000205F1010504E003DA4FF0000214
:104D6000A5F10105002AECD002981199C0E90231A1
:104D7000C0E9004579E70000000014400000F03F62
:104D8000300000000000F0430000E03F2DE9FF4F3D
:104D900095B09B468946064600250FE2252877D127
:104DA00000242746F84A0121059400E0044316F840
:104DB000013F203B01FA03F01042F7D130782A2856
:104DC00011D06FF02F033078A0F13002092A16D8E5
:104DD000059A44F0020402EB820203EB4202104403
:104DE000761C0590EFE759F8042B0592002A03DAA8
:104DF000504244F40054059044F00204761C30788C
:104E00002E2816D116F8010F44F004042A280DD0DC
:104E10006FF02F023078A0F13003092B09D807EB8F
:104E2000870302EB4303C718761CF3E759F8047BAA
:104E3000761C30786C280FD006DC4C2817D06828F8
:104E40000DD06A2814D104E0742810D07A280FD12C
:104E50000DE044F400140AE044F4801401E044F44A
:104E600040147278824202D104F58014761C761CBC
:104E7000307866280BD013DC582877D009DC00285E
:104E800075D04528F6D04628F4D047281AD19DE1A0
:104E900018E0632835D0642879D0652812D195E1CF
:104EA000702873D008DC6728F1D069286FD06E288D
:104EB0000DD06F2806D1B5E073282CD0752875D099
:104EC000782874D05A46179990476D1C75E1C4F341
:104ED0000250022809D003280DD0D9F80010042868
:104EE0000DD00D6009F1040967E1D9F80010EA1747
:104EF000C1E90052F6E7D9F800100D80F2E70D7015
:104F0000F0E719F8041B8DF8001000208DF801005F
:104F1000EA46012003E059F804AB4FF0FF30610787
:104F20004FF0000102D40DE008F101018846B942BA
:104F30000FDA8045F8DB1AF808100029F4D108E0F0
:104F400008F1010188468142FADB1AF808100029AD
:104F5000F6D105985B46A0EB080721463846179A1C
:104F600000F094FA284400EB080507E04DE029E141
:104F70000DE01AF8010B5A4617999047B8F101084D
:104F8000F7D25B4621463846179A13E142E00A22DF
:104F90000092C4F302524FF0000A022A08D059F8D6
:104FA00004CB032A4FEAEC710AD00DE029E02AE095
:104FB00009F1070121F00702F2E802C1914609E078
:104FC0000FFA8CFC4FEAEC71042A03D14FFA8CFCE7
:104FD0004FEAEC71002907DA0A460021DCF1000CE7
:104FE00061EB02012D2202E0220504D52B228DF86F
:104FF0000420012203E0E20701D02022F7E79046D7
:1050000059E00A2102E010220DE010214FF0000AC1
:1050100000910BE010224FF0000A44F0040408272E
:10502000009203E008224FF0000A0092C4F30252FB
:10503000022A05D059F804CB0021032A08D009E040
:1050400009F1070121F00702F2E802C1914605E0EB
:105050001FFA8CFC042A01D10CF0FF0C4FF0000861
:10506000220728D5702806D0009B83F0100353EA4E
:105070000A0305D00EE040228DF80420012208E04A
:105080005CEA010206D030228DF804208DF805007C
:1050900002229046009B83F0080353EA0A030AD1D8
:1050A0005CEA010201D1620705D530228DF80420A7
:1050B0004FF001087F1E582804D034A003900EA89A
:1050C00002900DE036A0F9E753466046009AFBF7E0
:1050D0006FFA84460398825C0298401E0290027028
:1050E0005CEA0100F0D1029806A9081A00F1200A32
:1050F000600702D524F4803400E00127574502DD23
:10510000A7EB0A0000E0002000EB0A0100900598E0
:105110004144401A0590E00306D45B462146179AA5
:10512000059800F0B3F90544002706E001A85A46A7
:10513000C05D179990476D1C7F1C4745F6DBE00367
:105140000CD55B462146179A059800F09FF9054457
:1051500004E030205A46179990476D1C0099481E6C
:1051600000900029F5DC08E0029802995A46007880
:10517000491C0291179990476D1CBAF10001AAF1E0
:10518000010AF1DC65E10000092801003031323309
:105190003435363738396162636465660000000073
:1051A000303132333435363738394142434445465D
:1051B0000000000000F058F90544761C3078002803
:1051C0007FF4ECAD19B02846BDE8F08F620700D43B
:1051D000062709F1070222F0070CFCE80223E1464A
:1051E00003F000485FEA080C02D00FF2702C0DE0CB
:1051F0005FEA045C02D50FF2682C07E05FEAC47C2A
:1052000002D00FF2602C01E0AFF2700C4FF0FF38CB
:1052100023F00043CDF850C065280CD006DC4528AB
:1052200009D046281DD047283DD13DE0662818D03A
:1052300067287ED138E00021112F01DB112000E02A
:10524000781CCDE9000106A90EA8FFF7DDFCDDE919
:105250000F010E9A03910021009207F1010A0491B7
:105260004DE04FF000400097CDE9011006A90EA8CF
:10527000FFF7CAFCDDE90F0203920E9B1199002291
:10528000DDF80CA00093049211B9791C00EB010A1F
:10529000B7EB0A0004D4C0F1FF3007F1010A049013
:1052A000AAEB0700019044E0012F00DA012700215A
:1052B000112F01DD112000E03846CDE9000106A9DB
:1052C0000EA8FFF7A1FCDDE90F010E9A0391002162
:1052D00004910092BA4621070CD40399514500DA93
:1052E0008A46BAF1010F05DD009AAAF10101515C6D
:1052F000302908D0B84202DA10F1040F06DA012191
:10530000CDE9011015E0AAF10101E9E7002805DC6B
:10531000049901440491AAEB000102E0411C5145AB
:1053200000DD8A460499401A401C01904FF000406D
:105330000290200704D40198504501DBCDF8048089
:1053400000208DF84F0002980DF14F07B0F1004F8B
:1053500025D02B200E9002984FF0020800280CDA7E
:10536000404202902D200E9007E00A210298FBF7A0
:1053700009F93031029007F8011DB8F10001A8F1D8
:105380000108F2DC02980028EFD1791E0E9808700F
:10539000307800F0200040F0450007F8020D12A818
:1053A000C01B00F107081498007800B1012000EB41
:1053B0000A01019801EBE07105984144401A401E32
:1053C0000590E00306D45B462146179A059800F045
:1053D0005DF805441498007818B15A46179990471B
:1053E0006D1CE00324D55B462146179A059800F012
:1053F0004DF805441CE00498002807DBDDE90301B3
:10540000884203DD0098405C179901E0179930202D
:105410005A469047049805F10105401C04900198F4
:10542000401E019004D12E205A46179990476D1CBA
:10543000BAF10001AAF1010ADDDC05E017F8010B61
:105440005A46179990476D1CB8F10001A8F1010860
:10545000F4DC5B462146179A0598ABE62D00000068
:105460002B000000200000002DE9F041044600253B
:105470001E461746880404D405E039462020B0476C
:105480006D1C641EF9D52846BDE8F0812DE9F04178
:10549000044600251E469046C80301D5302700E08B
:1054A0002027880404D505E041463846B0476D1CE6
:1054B000641EF9D52846BDE8F0810A68531C0B60CC
:1054C0001070704710B5054B1C2205A10948FFF765
:1054D0005BFB09A1074800F0F5F910BDAC1B0020EB
:1054E00041542B445452583D312C382C25642C25E2
:1054F000730D0A00D01C00204F4B2B53454E543ADD
:10550000000000004FF0E021096921F004014FF094
:10551000E0221161C21700EB5272C2F3C702074BBF
:105520001A701946097801EB4102C2EBC1114FF61E
:10553000FF7202EAC101024A118070471C0000207C
:105540001E00002001460D4A12884A434FF0E02316
:105550005A6100229A6101221A6100BF4FF0E022D5
:10556000106900F001021AB100F48032002AF5D06F
:1055700000224FF0E0231A619A6170471E0000205C
:1055800001460D4A12784A434FF0E0235A61002247
:105590009A6101221A6100BF4FF0E022106900F009
:1055A00001021AB100F48032002AF5D000224FF037
:1055B000E0231A619A6170471C00002010B500209A
:1055C000054908704FF480710448FAF7F6FD04A10C
:1055D00006A000F077F910BD24000020D01C0020A8
:1055E0002B434A4F494E3A4F4B00000041542B4346
:1055F0004A4F494E3D312C302C31302C380D0A00A9
:1056000013B50C464FF6FF73012269460248FDF7B9
:105610000EFB00981CBD0000141A00201FB50020CE
:1056200000900190029003904FF470700090012060
:105630000190002002900320039069460848FBF780
:105640000FFD4FF4004000900120019000200290D7
:105650000320039069460348FBF702FD1FBD0000CD
:1056600000100140000C014088B0FBF7B9FEFEF7C6
:1056700002FCFDF76BFEFDF737FEFDF7B3FEFDF70D
:10568000E7FEFDF701FFFDF71BFFFDF735FFFDF717
:105690004FFF4820FFF736FF00F0ACF80020FEF780
:1056A00029FBFFF7BBFFFDF7D7FDFFF761F93F4887
:1056B000FEF7D7FB00BFFFF781FF0028FBD04FF0BC
:1056C000000A71E03A48007800284CD0FEF7D0F983
:1056D0000020374908703748FEF7EAF93548B0F935
:1056E0000B0000903348B0F91130B0F90F20B0F939
:1056F0000D1031A0FFF738FA2E49D1F81300FAF750
:1057000012FF04460D462B49D1F81F00FAF70BFF94
:1057100006460F462749D1F81B00FAF704FF8046DA
:1057200089462449D1F81700FAF7FDFE02460B46D8
:10573000CDE90089CDE90267CDE90445CDE906014F
:1057400021A0FFF711FA24A200210846FDF768FD09
:105750000AF1010000F0FF0ABAF11E0F03DB4FF05F
:10576000000AFFF7AFFE2148407D38B100201F49F5
:1057700048750A4611891068FBF7F4F81C48407D0B
:1057800090B100201A4948750A4651895068FBF7C4
:10579000E9F81420FFF7D6FE002015494881486833
:1057A0004FF40061FAF709FD8CE70000FC060020C9
:1057B00014000020AC1C0020256409256409256420
:1057C0000925640A0000000025660925660925668A
:1057D0000925660A00000000434131323836344959
:1057E000322050726F6772616D0000005C180020FB
:1057F000441700201FB500200090019002900390F4
:105800004FF49170009001200190029003200390CA
:1058100069460B48FBF724FC4FF400700090002011
:105820000190012002900320039069460448FBF791
:1058300017FC012220210248FBF7BAFD1FBD000022
:10584000000C014070B505460026002202211C48CC
:10585000FBF7AEFD00242FE0C4F1070101208840D2
:10586000284028B1012211021548FBF7A1FD05E0EF
:1058700000224FF480711248FBF79AFD0220FFF7D7
:105880007FFE012202210E48FBF792FD0220FFF766
:1058900077FE4FF400710A48FBF782FD28B1C4F18E
:1058A0000701012088403043C6B20022022104488B
:1058B000FBF77EFD601CC4B2082CCDDB304670BD0A
:1058C000000C01402DE9F04105460E462846FFF741
:1058D00043F8002438E00120FFF734FE1D48407DE6
:1058E00000282FD000201B4948750A4611891068EE
:1058F000FBF738F81749086817A1FAF769FC10B1E7
:1059000001201B490870134908683146FAF760FC0A
:1059100007461748007818B100201549087000277D
:105920001420FFF70FFE00200A49088108684FF491
:105930008071FAF742FC2FB10EA0FFF715F9012094
:10594000BDE8F081601C84B24CF250308442C2DB6E
:105950000020F5E7741900205352565F4D41435F14
:105960004445565F5354415455535F5245510000CE
:1059700024000020636D642073656E74207375636A
:105980006365737366756C6C790A00001F1C1F1EBB
:105990001F1E1F1F1E1F1E1F000000000000000012
:1059A00001020304060708090000000001020304C5
:1059B000D059000800000020400600000008000840
:1059C0002C5D000840060020901B0000F84B0008EA
:1059D000012514030201051207060504550E1F1FB9
:1059E0000E43B0B04B1C1C04812C041F1F03112C50
:1059F00040F0F00311270C1E737118081720301C9B
:105A00009CF0602008183C243D1B060C100860C068
:105A1000B0784878301D0D1F121E0F115808E0F0A5
:105A20001090E0F09052A98A440F1C103CE0F81C42
:105A30008E3D101C0F0369341CF8E0200801050797
:105A4000030705011E40C080C040101D010707016B
:105A50000F21E3C0C02C343C3830390101145430DC
:105A600030302501071E18551878E0802F0F1F10C1
:105A7000161F0FA115D010F0E06604040C1F1F3391
:105A8000F0F01F0C1C10111F0E3E1D70D09010A9BD
:105A90003C0C1C11102C6070102F21192E2B0707A5
:105AA0008E1E4040F0F0400F1C111111281E1010E6
:105AB0001030E0A21E03071E1A13904BE0F0302DA9
:105AC0001010111780113B70F0803C0E1F135019FD
:105AD000202A9020198F2A108F113D90B0F0C022FB
