:020000040800F2
:100000004804002045010008FD020008F102000834
:10001000FB020008750100088307000800000000CB
:100020000000000000000000000000008106000841
:1000300091010008000000001F030008830600086B
:10004000850700081D03000885060008CB05000889
:10005000A101000835050008930100089701000878
:10006000990100089B0100089D0100087B01000820
:100070007D0100087F01000881010008830100085C
:100080008501000887010008710100087F0700084A
:100090008107000877010008790100089F01000826
:1000A000870600088D0600088B06000889060008F0
:1000B0008F0600089106000893060008F502000864
:1000C000F3020008F9020008F7020008CF05000853
:1000D000D1050008A7060008A9060008AB0600081D
:1000E00095010008C90500087D0700089B06000867
:1000F000A10600089F0600089D060008730100087D
:10010000D5010008CD05000895060008D3050008B4
:10011000A3060008A506000897060008990600082F
:10012000890100088B0100088D0100088F0100087B
:10013000DFF80CD000F00AF800480047DD0700089F
:10014000480400200048004731010008064C074DD4
:1001500006E0E06840F0010394E807009847103497
:10016000AC42F6D3FFF7E8FFEC0800080C090008E2
:1001700070477047FEE77047704770477047704799
:1001800070477047704770477047704770477047B7
:1001900070477047704770477047704770477047A7
:1001A0007047000004490A6822F010020A600A68D9
:1001B00002430A60704700000020024004490A68B8
:1001C00002F038020A600A6802430A6070470000C1
:1001D0000020024070470000F8B503248DF802406B
:1001E00018258DF803504FF46040154EADF800000F
:1001F0006946304600F028F87015ADF800008DF81B
:1002000002408DF803500F4D6946284600F01CF857
:100210002815ADF8000004208DF803006946284633
:1002200000F012F8A814ADF8000010208DF80300BB
:100230008DF802406946304600F006F8F8BD00002F
:10024000000C014000080140F0B5CB780022DC062C
:1002500003F00F0301D58C7823430C880F2714F08B
:10026000FF0F4FF0010C1CD0D0F800500E880CFA94
:1002700002F42640A64210D1960007FA06FE25EAAF
:100280000E0E03FA06F5CE7845EA0E05282E00D1AB
:100290004461CE78482E00D10461521C082AE5D36F
:1002A00005600A88FF2A1ED94568002202F1080667
:1002B0000CFA06F40E882640A64210D1960007FAE2
:1002C00006FE25EA0E0E03FA06F5CE7845EA0E057F
:1002D000282E00D14461CE78482E00D10461521CF2
:1002E000082AE3D34560F0BD416170470161704762
:1002F000FEE77047704770477047FEE77047002180
:100300004FF00060AFF30080024A11400143024801
:100310000160704780FFFF1F08ED00E070477047E5
:10032000044A0029D16901D0014300E08143D16131
:100330007047000000100240044A0029916901D072
:10034000014300E0814391617047000000100240CA
:1003500070B500F043F84FF48034204600F0D0F838
:1003600000F018F91C490870C0B2012824D11020EF
:10037000FFF718FF0220FFF721FF002000F0B6F87A
:10038000A511284600F0E2F8284600F0D5F84FF411
:10039000E011204600F0EAF8012000F0E1F83920F1
:1003A00000F084F80028FAD0022000F0E9F800BF3D
:1003B00000F094F80828FBD101210C20FFF7BCFFC6
:1003C00001218C032046FFF7ABFF2046BDE87040BB
:1003D0000121FFF7B1BF0000000000200B480168B9
:1003E00041F0010101604168094A11404160016822
:1003F000084A11400160016821F4802101604268CF
:10040000002122F4FE024260816070470010024029
:100410000000FFF8FFFFF6FE30B5204A5168204B80
:1004200011F00C0103D0042901D0082901D0036088
:1004300011E05168022401F4701104EB91415468F9
:10044000184D14F4803F02D05468A40301D56943C9
:1004500000E0594301605168134B01F0F0010909B4
:100460005C5C0168E1404160546804F4E064240A83
:100470001C5D21FA04F48460546804F46054E40AB6
:100480001B5DD940C1605268074B02F44042920B99
:100490001B1F9A5CB1FBF2F1016130BD00100240FC
:1004A00000127A0000093D00DC0800080346002025
:1004B0005909094A012901D1116804E0022901D131
:1004C000116A00E0516A03F01F02012393400B42BE
:1004D00000D0012070470000001002400248406830
:1004E00000F00C007047000000100240034A516801
:1004F00021F0F001014351607047000000100240FC
:100500000B490A6822F480320A600A68B0F5803F1D
:1005100022F480220A6007D0B0F5802F03D108684A
:1005200040F4A02008607047086840F48030F9E784
:100530000010024070470000034A516821F4E06156
:10054000014351607047000000100240034A5168A7
:1005500021F4605141EAC000506070470010024031
:10056000014908667047000000004242034B5A6888
:10057000084322F47C121043586070470010024078
:10058000034A516821F003010143516070470000A4
:100590000010024030B50B4C40F2FF153120FFF740
:1005A00085FF20706068401C6060207810B960682A
:1005B000A842F3D13120FFF779FF002800D00120B5
:1005C00030BD000010000020704770477047704732
:1005D000704770470029018802D041F0400101E0D6
:1005E00021F040010180704770B502880B884E8869
:1005F0008C88CD8833432C430E8923434C89334365
:100600008D892343CC892B4302F441522343134366
:100610000380828B22F400628283098A018270BD8A
:1006200070B5154E04464FF4805529463046FFF705
:100630005BFE1248B0F808188907FBD50021A0F826
:100640000C1800BFB0F80818C907FBD0B0F80C1898
:10065000A0F80C480A0400BFB0F80818C907FBD07E
:10066000B0F80C48294614433046FFF73FFE0A20F5
:1006700000F0A7F8204670BD000C0140003000409B
:1006800070477047704770477047704770477047B2
:1006900070477047704770477047704770477047A2
:1006A00070477047704770477047704700298189CD
:1006B00002D041F4005101E021F4005181817047E2
:1006C00030B50446008A85B00D464CF6FF710840EF
:1006D000E98801432182A0894EF6F3110840A988D8
:1006E0002A8911436A8902431143A181A08A4FF6E6
:1006F000FF410840A9890143A1826846FFF78CFEAB
:100700001048844201D1039800E00298192148431F
:10071000296864228900B0FBF1F0B0FBF2F1090115
:100720000B096FF018056B43322500EB830005EBD6
:100730000010B0FBF2F000F00F000843208105B07C
:1007400030BD0000003801400A4AD2F80C380A498E
:1007500043F48073C2F80C38A1F80408B1F800081B
:100760004006FBD5D2F80C0820F48070C2F80C08C3
:1007700070470000000001400030014070477047A2
:100780007047FEE7704702E008C8121F08C1002A40
:10079000FAD170477047002001E001C1121F002A02
:1007A000FBD1704742F6E06100220B4606E0491E8D
:1007B0000904090CFBD1521C194692B28242F6D3AD
:1007C000704700220D2106E0491E11F0FF01FBD108
:1007D0000D21521C92B28242F6D3704770B564204C
:1007E000FFF7E0FFFFF7B4FDFFF789FDFFF7F4FC2B
:1007F0003048002404804FF4827141804FF400613E
:100800008180C48004818910418128218181C48133
:1008100007210182284D01462846FFF7E5FE012108
:100820002846FFF7D7FE23484FF4165112300160D7
:100830008480C480048184810C2141811F4C014645
:100840002046FFF73DFF01212046FFF72FFFA114AF
:100850001B48FFF74BFD0A20FFF7A4FF1948FFF7DD
:10086000DFFE0520FFF79EFF174C2046FFF7D8FE5E
:100870002046FFF7D5FE1548FFF7D2FE144D154C64
:100880002846FFF7CDFEA060E060000EFFF75CFF9A
:10089000E068C0F30740FFF757FFE068C0F30720A8
:1008A000FFF752FFE068C0B2FFF74EFF6820FFF786
:1008B0004BFFE5E7220000200038004000380140EF
:1008C000000C0140250200B4E5000018EF00001400
:1008D000F7000004000000200204060800000000E9
:1008E0000102030401020304060708090C090008B9
:1008F00000000020180000008607000824090008F6
:1009000018000020300400009607000800000000D6
:1009100000000000000000000000000000000000D7
:0409200000000000D3
:0400000508000131BD
:00000001FF
